{
  "contractName": "AdvArray",
  "abi": [
    {
      "inputs": [],
      "name": "nextId",
      "outputs": [
        {
          "internalType": "uint256",
          "name": "",
          "type": "uint256"
        }
      ],
      "stateMutability": "view",
      "type": "function"
    },
    {
      "inputs": [
        {
          "internalType": "uint256",
          "name": "",
          "type": "uint256"
        }
      ],
      "name": "users",
      "outputs": [
        {
          "internalType": "uint256",
          "name": "id",
          "type": "uint256"
        },
        {
          "internalType": "string",
          "name": "name",
          "type": "string"
        }
      ],
      "stateMutability": "view",
      "type": "function"
    },
    {
      "inputs": [
        {
          "internalType": "string",
          "name": "name",
          "type": "string"
        }
      ],
      "name": "insert",
      "outputs": [],
      "stateMutability": "nonpayable",
      "type": "function"
    },
    {
      "inputs": [
        {
          "internalType": "uint256",
          "name": "id",
          "type": "uint256"
        }
      ],
      "name": "read",
      "outputs": [
        {
          "internalType": "uint256",
          "name": "",
          "type": "uint256"
        },
        {
          "internalType": "string",
          "name": "",
          "type": "string"
        }
      ],
      "stateMutability": "view",
      "type": "function"
    },
    {
      "inputs": [
        {
          "internalType": "uint256",
          "name": "id",
          "type": "uint256"
        },
        {
          "internalType": "string",
          "name": "name",
          "type": "string"
        }
      ],
      "name": "update",
      "outputs": [],
      "stateMutability": "nonpayable",
      "type": "function"
    },
    {
      "inputs": [
        {
          "internalType": "uint256",
          "name": "id",
          "type": "uint256"
        }
      ],
      "name": "remove",
      "outputs": [],
      "stateMutability": "nonpayable",
      "type": "function"
    }
  ],
  "bytecode": "0x60806040526001805534801561001457600080fd5b50610a7c806100246000396000f3fe608060405234801561001057600080fd5b50600436106100625760003560e01c8063365b98b2146100675780634cc822151461009857806361b8ce8c146100b4578063b1498e29146100d2578063ed2e5a97146100ee578063f745630f1461011f575b600080fd5b610081600480360381019061007c91906105da565b61013b565b60405161008f9291906106af565b60405180910390f35b6100b260048036038101906100ad91906105da565b6101f7565b005b6100bc610245565b6040516100c991906106df565b60405180910390f35b6100ec60048036038101906100e7919061082f565b61024b565b005b610108600480360381019061010391906105da565b6102d1565b6040516101169291906106af565b60405180910390f35b61013960048036038101906101349190610878565b6103c3565b005b6000818154811061014b57600080fd5b906000526020600020906002020160009150905080600001549080600101805461017490610903565b80601f01602080910402602001604051908101604052809291908181526020018280546101a090610903565b80156101ed5780601f106101c2576101008083540402835291602001916101ed565b820191906000526020600020905b8154815290600101906020018083116101d057829003601f168201915b5050505050905082565b60006102028261040f565b90506000818154811061021857610217610934565b5b906000526020600020906002020160008082016000905560018201600061023f91906104ad565b50505050565b60015481565b6000604051806040016040528060015481526020018381525090806001815401808255809150506001900390600052602060002090600202016000909190919091506000820151816000015560208201518160010190805190602001906102b39291906104ed565b505050600160008154809291906102c990610992565b919050555050565b6000606060006102e08461040f565b9050600081815481106102f6576102f5610934565b5b9060005260206000209060020201600001546000828154811061031c5761031b610934565b5b906000526020600020906002020160010180805461033990610903565b80601f016020809104026020016040519081016040528092919081815260200182805461036590610903565b80156103b25780601f10610387576101008083540402835291602001916103b2565b820191906000526020600020905b81548152906001019060200180831161039557829003601f168201915b505050505090509250925050915091565b60006103ce8361040f565b905081600082815481106103e5576103e4610934565b5b906000526020600020906002020160010190805190602001906104099291906104ed565b50505050565b600080600090505b60008054905081101561046c57826000828154811061043957610438610934565b5b9060005260206000209060020201600001540361045957809150506104a8565b808061046490610992565b915050610417565b506040517f08c379a000000000000000000000000000000000000000000000000000000000815260040161049f90610a26565b60405180910390fd5b919050565b5080546104b990610903565b6000825580601f106104cb57506104ea565b601f0160209004906000526020600020908101906104e99190610573565b5b50565b8280546104f990610903565b90600052602060002090601f01602090048101928261051b5760008555610562565b82601f1061053457805160ff1916838001178555610562565b82800160010185558215610562579182015b82811115610561578251825591602001919060010190610546565b5b50905061056f9190610573565b5090565b5b8082111561058c576000816000905550600101610574565b5090565b6000604051905090565b600080fd5b600080fd5b6000819050919050565b6105b7816105a4565b81146105c257600080fd5b50565b6000813590506105d4816105ae565b92915050565b6000602082840312156105f0576105ef61059a565b5b60006105fe848285016105c5565b91505092915050565b610610816105a4565b82525050565b600081519050919050565b600082825260208201905092915050565b60005b83811015610650578082015181840152602081019050610635565b8381111561065f576000848401525b50505050565b6000601f19601f8301169050919050565b600061068182610616565b61068b8185610621565b935061069b818560208601610632565b6106a481610665565b840191505092915050565b60006040820190506106c46000830185610607565b81810360208301526106d68184610676565b90509392505050565b60006020820190506106f46000830184610607565b92915050565b600080fd5b600080fd5b7f4e487b7100000000000000000000000000000000000000000000000000000000600052604160045260246000fd5b61073c82610665565b810181811067ffffffffffffffff8211171561075b5761075a610704565b5b80604052505050565b600061076e610590565b905061077a8282610733565b919050565b600067ffffffffffffffff82111561079a57610799610704565b5b6107a382610665565b9050602081019050919050565b82818337600083830152505050565b60006107d26107cd8461077f565b610764565b9050828152602081018484840111156107ee576107ed6106ff565b5b6107f98482856107b0565b509392505050565b600082601f830112610816576108156106fa565b5b81356108268482602086016107bf565b91505092915050565b6000602082840312156108455761084461059a565b5b600082013567ffffffffffffffff8111156108635761086261059f565b5b61086f84828501610801565b91505092915050565b6000806040838503121561088f5761088e61059a565b5b600061089d858286016105c5565b925050602083013567ffffffffffffffff8111156108be576108bd61059f565b5b6108ca85828601610801565b9150509250929050565b7f4e487b7100000000000000000000000000000000000000000000000000000000600052602260045260246000fd5b6000600282049050600182168061091b57607f821691505b60208210810361092e5761092d6108d4565b5b50919050565b7f4e487b7100000000000000000000000000000000000000000000000000000000600052603260045260246000fd5b7f4e487b7100000000000000000000000000000000000000000000000000000000600052601160045260246000fd5b600061099d826105a4565b91507fffffffffffffffffffffffffffffffffffffffffffffffffffffffffffffffff82036109cf576109ce610963565b5b600182019050919050565b7f5573657220646f6573206e6f7420657869737421000000000000000000000000600082015250565b6000610a10601483610621565b9150610a1b826109da565b602082019050919050565b60006020820190508181036000830152610a3f81610a03565b905091905056fea2646970667358221220f34da31e54204724d00d6c8e9075829c86ecdc578cea3a125fc4a24dfbae65dd64736f6c634300080d0033",
  "immutableReferences": {},
  "source": "// SPDX-License-Identifier: UNLICENSED\npragma solidity >=0.5.0 <0.9.0;\n\ncontract AdvArray {\n    struct User {\n        uint256 id;\n        string name;\n    }\n    User[] public users;\n    uint256 public nextId = 1;\n\n    function insert(string memory name) public {\n        users.push(User(nextId, name));\n        nextId++;\n    }\n\n    function read(uint256 id) public view returns (uint256, string memory) {\n        uint256 i = find(id);\n        return (users[i].id, users[i].name);\n    }\n\n    function update(uint256 id, string memory name) public {\n        uint256 i = find(id);\n        users[i].name = name;\n    }\n\n    function remove(uint256 id) public {\n        uint256 i = find(id);\n        delete users[i];\n    }\n\n    function find(uint256 id) internal view returns (uint256) {\n        for (uint256 i = 0; i < users.length; i++) {\n            if (users[i].id == id) {\n                return i;\n            }\n        }\n        revert(\"User does not exist!\");\n    }\n}\n\ncontract ExposedContract is AdvArray {\n    function _find(uint256 id) public view returns (uint256) {\n        for (uint256 i = 0; i < users.length; i++) {\n            if (users[i].id == id) {\n                return i;\n            }\n        }\n        revert(\"User does not exist!\");\n    }\n}",
  "sourcePath": "/home/jkirito/Desktop/learning/web3/truffle/tf_1/contracts/AdvArray.sol",
  "compiler": {
    "name": "solc",
    "version": "0.8.13+commit.abaa5c0e.Emscripten.clang"
  },
  "schemaVersion": "3.4.7",
  "updatedAt": "2022-05-08T11:00:11.157Z",
  "devdoc": {
    "kind": "dev",
    "methods": {},
    "version": 1
  },
  "userdoc": {
    "kind": "user",
    "methods": {},
    "version": 1
  }
}