{
  "contractName": "Array",
  "abi": [
    {
      "inputs": [],
      "name": "nextId",
      "outputs": [
        {
          "internalType": "uint256",
          "name": "",
          "type": "uint256"
        }
      ],
      "stateMutability": "view",
      "type": "function",
      "constant": true
    },
    {
      "inputs": [
        {
          "internalType": "uint256",
          "name": "",
          "type": "uint256"
        }
      ],
      "name": "students",
      "outputs": [
        {
          "internalType": "uint256",
          "name": "id",
          "type": "uint256"
        },
        {
          "internalType": "string",
          "name": "name",
          "type": "string"
        }
      ],
      "stateMutability": "view",
      "type": "function",
      "constant": true
    },
    {
      "inputs": [
        {
          "internalType": "string",
          "name": "name",
          "type": "string"
        }
      ],
      "name": "insert",
      "outputs": [],
      "stateMutability": "nonpayable",
      "type": "function"
    },
    {
      "inputs": [
        {
          "internalType": "uint256",
          "name": "id",
          "type": "uint256"
        }
      ],
      "name": "read",
      "outputs": [
        {
          "internalType": "uint256",
          "name": "",
          "type": "uint256"
        },
        {
          "internalType": "string",
          "name": "",
          "type": "string"
        }
      ],
      "stateMutability": "view",
      "type": "function",
      "constant": true
    },
    {
      "inputs": [
        {
          "internalType": "uint256",
          "name": "id",
          "type": "uint256"
        }
      ],
      "name": "find",
      "outputs": [
        {
          "internalType": "uint256",
          "name": "",
          "type": "uint256"
        }
      ],
      "stateMutability": "view",
      "type": "function",
      "constant": true
    }
  ],
  "bytecode": "0x60806040526001805534801561001457600080fd5b50610933806100246000396000f3fe608060405234801561001057600080fd5b50600436106100575760003560e01c806306ead22e1461005c5780633e530e5b1461008d57806361b8ce8c146100bd578063b1498e29146100db578063ed2e5a97146100f7575b600080fd5b610076600480360381019061007191906104ed565b610128565b6040516100849291906105c2565b60405180910390f35b6100a760048036038101906100a291906104ed565b6101e4565b6040516100b491906105f2565b60405180910390f35b6100c5610282565b6040516100d291906105f2565b60405180910390f35b6100f560048036038101906100f09190610742565b610288565b005b610111600480360381019061010c91906104ed565b61030e565b60405161011f9291906105c2565b60405180910390f35b6000818154811061013857600080fd5b9060005260206000209060020201600091509050806000015490806001018054610161906107ba565b80601f016020809104026020016040519081016040528092919081815260200182805461018d906107ba565b80156101da5780601f106101af576101008083540402835291602001916101da565b820191906000526020600020905b8154815290600101906020018083116101bd57829003601f168201915b5050505050905082565b600080600090505b60008054905081101561024157826000828154811061020e5761020d6107eb565b5b9060005260206000209060020201600001540361022e578091505061027d565b808061023990610849565b9150506101ec565b506040517f08c379a0000000000000000000000000000000000000000000000000000000008152600401610274906108dd565b60405180910390fd5b919050565b60015481565b6000604051806040016040528060015481526020018381525090806001815401808255809150506001900390600052602060002090600202016000909190919091506000820151816000015560208201518160010190805190602001906102f0929190610400565b5050506001600081548092919061030690610849565b919050555050565b60006060600061031d846101e4565b905060008181548110610333576103326107eb565b5b90600052602060002090600202016000015460008281548110610359576103586107eb565b5b9060005260206000209060020201600101808054610376906107ba565b80601f01602080910402602001604051908101604052809291908181526020018280546103a2906107ba565b80156103ef5780601f106103c4576101008083540402835291602001916103ef565b820191906000526020600020905b8154815290600101906020018083116103d257829003601f168201915b505050505090509250925050915091565b82805461040c906107ba565b90600052602060002090601f01602090048101928261042e5760008555610475565b82601f1061044757805160ff1916838001178555610475565b82800160010185558215610475579182015b82811115610474578251825591602001919060010190610459565b5b5090506104829190610486565b5090565b5b8082111561049f576000816000905550600101610487565b5090565b6000604051905090565b600080fd5b600080fd5b6000819050919050565b6104ca816104b7565b81146104d557600080fd5b50565b6000813590506104e7816104c1565b92915050565b600060208284031215610503576105026104ad565b5b6000610511848285016104d8565b91505092915050565b610523816104b7565b82525050565b600081519050919050565b600082825260208201905092915050565b60005b83811015610563578082015181840152602081019050610548565b83811115610572576000848401525b50505050565b6000601f19601f8301169050919050565b600061059482610529565b61059e8185610534565b93506105ae818560208601610545565b6105b781610578565b840191505092915050565b60006040820190506105d7600083018561051a565b81810360208301526105e98184610589565b90509392505050565b6000602082019050610607600083018461051a565b92915050565b600080fd5b600080fd5b7f4e487b7100000000000000000000000000000000000000000000000000000000600052604160045260246000fd5b61064f82610578565b810181811067ffffffffffffffff8211171561066e5761066d610617565b5b80604052505050565b60006106816104a3565b905061068d8282610646565b919050565b600067ffffffffffffffff8211156106ad576106ac610617565b5b6106b682610578565b9050602081019050919050565b82818337600083830152505050565b60006106e56106e084610692565b610677565b90508281526020810184848401111561070157610700610612565b5b61070c8482856106c3565b509392505050565b600082601f8301126107295761072861060d565b5b81356107398482602086016106d2565b91505092915050565b600060208284031215610758576107576104ad565b5b600082013567ffffffffffffffff811115610776576107756104b2565b5b61078284828501610714565b91505092915050565b7f4e487b7100000000000000000000000000000000000000000000000000000000600052602260045260246000fd5b600060028204905060018216806107d257607f821691505b6020821081036107e5576107e461078b565b5b50919050565b7f4e487b7100000000000000000000000000000000000000000000000000000000600052603260045260246000fd5b7f4e487b7100000000000000000000000000000000000000000000000000000000600052601160045260246000fd5b6000610854826104b7565b91507fffffffffffffffffffffffffffffffffffffffffffffffffffffffffffffffff82036108865761088561081a565b5b600182019050919050565b7f5573657220646f6573206e6f7420657869737421000000000000000000000000600082015250565b60006108c7601483610534565b91506108d282610891565b602082019050919050565b600060208201905081810360008301526108f6816108ba565b905091905056fea2646970667358221220e395ac8889b36d901dcee748f954e9c21d2b4f6c64928d911737979cfd9eb9aa64736f6c634300080d0033",
  "immutableReferences": {},
  "source": "//SPDX-License-Identifier: UNLICENSED\npragma solidity >=0.5.0 <0.9.0;\n\ncontract Array {\n    struct Student {\n        uint256 id;\n        string name;\n    }\n    Student[] public students;\n    uint256 public nextId = 1;\n\n    function insert(string memory name) public {\n        students.push(Student(nextId, name));\n        nextId++;\n    }\n\n    function read(uint256 id) public view returns (uint256, string memory) {\n        uint256 i = find(id);\n        return (students[i].id, students[i].name);\n    }\n\n    function find(uint256 id) public view returns (uint256) {\n        for (uint256 i = 0; i < students.length; i++) {\n            if (students[i].id == id) {\n                return i;\n            }\n        }\n        revert(\"User does not exist!\");\n    }\n}\n",
  "sourcePath": "/home/jkirito/Desktop/learning/web3/truffle/tf_1/contracts/Struct.sol",
  "compiler": {
    "name": "solc",
    "version": "0.8.13+commit.abaa5c0e.Emscripten.clang"
  },
  "schemaVersion": "3.4.7",
  "updatedAt": "2022-05-08T11:01:00.258Z",
  "networkType": "ethereum",
  "devdoc": {
    "kind": "dev",
    "methods": {},
    "version": 1
  },
  "userdoc": {
    "kind": "user",
    "methods": {},
    "version": 1
  }
}