{
  "contractName": "Conditionals",
  "abi": [
    {
      "inputs": [
        {
          "internalType": "uint256",
          "name": "a",
          "type": "uint256"
        },
        {
          "internalType": "uint256",
          "name": "b",
          "type": "uint256"
        }
      ],
      "name": "check",
      "outputs": [
        {
          "internalType": "uint256",
          "name": "_c",
          "type": "uint256"
        }
      ],
      "stateMutability": "pure",
      "type": "function",
      "constant": true
    }
  ],
  "bytecode": "0x608060405234801561001057600080fd5b5061020a806100206000396000f3fe608060405234801561001057600080fd5b506004361061002b5760003560e01c80638fefd8ea14610030575b600080fd5b61004a600480360381019061004591906100ed565b610060565b604051610057919061013c565b60405180910390f35b6000808284116100a5576040517f08c379a000000000000000000000000000000000000000000000000000000000815260040161009c906101b4565b60405180910390fd5b8390508091505092915050565b600080fd5b6000819050919050565b6100ca816100b7565b81146100d557600080fd5b50565b6000813590506100e7816100c1565b92915050565b60008060408385031215610104576101036100b2565b5b6000610112858286016100d8565b9250506020610123858286016100d8565b9150509250929050565b610136816100b7565b82525050565b6000602082019050610151600083018461012d565b92915050565b600082825260208201905092915050565b7f412073686f756c642062652067726561746572207468616e2062000000000000600082015250565b600061019e601a83610157565b91506101a982610168565b602082019050919050565b600060208201905081810360008301526101cd81610191565b905091905056fea2646970667358221220c580ba3f2138025eb90ffb9091ae18ff52fca8e1a80ca2db48138b741ecf5e7a64736f6c634300080d0033",
  "immutableReferences": {},
  "source": "// SPDX-License-Identifier: MIT\npragma solidity >=0.5.0 <0.9.0;\n\ncontract Conditionals {\n\n    function check(uint a,uint b) public pure returns(uint _c) {\n        uint c;\n        require(a>b,\"A should be greater than b\");\n        c = a;\n        return c;\n    }\n}",
  "sourcePath": "/home/jkirito/Desktop/learning/web3/truffle/tf_1/contracts/Conditionals.sol",
  "compiler": {
    "name": "solc",
    "version": "0.8.13+commit.abaa5c0e.Emscripten.clang"
  },
  "schemaVersion": "3.4.7",
  "updatedAt": "2022-05-08T11:00:59.043Z",
  "networkType": "ethereum",
  "devdoc": {
    "kind": "dev",
    "methods": {},
    "version": 1
  },
  "userdoc": {
    "kind": "user",
    "methods": {},
    "version": 1
  }
}