{
  "contractName": "ExposedContract",
  "abi": [
    {
      "inputs": [
        {
          "internalType": "string",
          "name": "name",
          "type": "string"
        }
      ],
      "name": "insert",
      "outputs": [],
      "stateMutability": "nonpayable",
      "type": "function"
    },
    {
      "inputs": [],
      "name": "nextId",
      "outputs": [
        {
          "internalType": "uint256",
          "name": "",
          "type": "uint256"
        }
      ],
      "stateMutability": "view",
      "type": "function",
      "constant": true
    },
    {
      "inputs": [
        {
          "internalType": "uint256",
          "name": "id",
          "type": "uint256"
        }
      ],
      "name": "read",
      "outputs": [
        {
          "internalType": "uint256",
          "name": "",
          "type": "uint256"
        },
        {
          "internalType": "string",
          "name": "",
          "type": "string"
        }
      ],
      "stateMutability": "view",
      "type": "function",
      "constant": true
    },
    {
      "inputs": [
        {
          "internalType": "uint256",
          "name": "id",
          "type": "uint256"
        }
      ],
      "name": "remove",
      "outputs": [],
      "stateMutability": "nonpayable",
      "type": "function"
    },
    {
      "inputs": [
        {
          "internalType": "uint256",
          "name": "id",
          "type": "uint256"
        },
        {
          "internalType": "string",
          "name": "name",
          "type": "string"
        }
      ],
      "name": "update",
      "outputs": [],
      "stateMutability": "nonpayable",
      "type": "function"
    },
    {
      "inputs": [
        {
          "internalType": "uint256",
          "name": "",
          "type": "uint256"
        }
      ],
      "name": "users",
      "outputs": [
        {
          "internalType": "uint256",
          "name": "id",
          "type": "uint256"
        },
        {
          "internalType": "string",
          "name": "name",
          "type": "string"
        }
      ],
      "stateMutability": "view",
      "type": "function",
      "constant": true
    },
    {
      "inputs": [
        {
          "internalType": "uint256",
          "name": "id",
          "type": "uint256"
        }
      ],
      "name": "_find",
      "outputs": [
        {
          "internalType": "uint256",
          "name": "",
          "type": "uint256"
        }
      ],
      "stateMutability": "view",
      "type": "function",
      "constant": true
    }
  ],
  "bytecode": "0x60806040526001805534801561001457600080fd5b50610b65806100246000396000f3fe608060405234801561001057600080fd5b506004361061007d5760003560e01c806361b8ce8c1161005b57806361b8ce8c146100ff578063b1498e291461011d578063ed2e5a9714610139578063f745630f1461016a5761007d565b80631a85bd5714610082578063365b98b2146100b25780634cc82215146100e3575b600080fd5b61009c600480360381019061009791906106c3565b610186565b6040516100a991906106ff565b60405180910390f35b6100cc60048036038101906100c791906106c3565b610224565b6040516100da9291906107b3565b60405180910390f35b6100fd60048036038101906100f891906106c3565b6102e0565b005b61010761032e565b60405161011491906106ff565b60405180910390f35b61013760048036038101906101329190610918565b610334565b005b610153600480360381019061014e91906106c3565b6103ba565b6040516101619291906107b3565b60405180910390f35b610184600480360381019061017f9190610961565b6104ac565b005b600080600090505b6000805490508110156101e35782600082815481106101b0576101af6109bd565b5b906000526020600020906002020160000154036101d0578091505061021f565b80806101db90610a1b565b91505061018e565b506040517f08c379a000000000000000000000000000000000000000000000000000000000815260040161021690610aaf565b60405180910390fd5b919050565b6000818154811061023457600080fd5b906000526020600020906002020160009150905080600001549080600101805461025d90610afe565b80601f016020809104026020016040519081016040528092919081815260200182805461028990610afe565b80156102d65780601f106102ab576101008083540402835291602001916102d6565b820191906000526020600020905b8154815290600101906020018083116102b957829003601f168201915b5050505050905082565b60006102eb826104f8565b905060008181548110610301576103006109bd565b5b90600052602060002090600202016000808201600090556001820160006103289190610596565b50505050565b60015481565b60006040518060400160405280600154815260200183815250908060018154018082558091505060019003906000526020600020906002020160009091909190915060008201518160000155602082015181600101908051906020019061039c9291906105d6565b505050600160008154809291906103b290610a1b565b919050555050565b6000606060006103c9846104f8565b9050600081815481106103df576103de6109bd565b5b90600052602060002090600202016000015460008281548110610405576104046109bd565b5b906000526020600020906002020160010180805461042290610afe565b80601f016020809104026020016040519081016040528092919081815260200182805461044e90610afe565b801561049b5780601f106104705761010080835404028352916020019161049b565b820191906000526020600020905b81548152906001019060200180831161047e57829003601f168201915b505050505090509250925050915091565b60006104b7836104f8565b905081600082815481106104ce576104cd6109bd565b5b906000526020600020906002020160010190805190602001906104f29291906105d6565b50505050565b600080600090505b600080549050811015610555578260008281548110610522576105216109bd565b5b906000526020600020906002020160000154036105425780915050610591565b808061054d90610a1b565b915050610500565b506040517f08c379a000000000000000000000000000000000000000000000000000000000815260040161058890610aaf565b60405180910390fd5b919050565b5080546105a290610afe565b6000825580601f106105b457506105d3565b601f0160209004906000526020600020908101906105d2919061065c565b5b50565b8280546105e290610afe565b90600052602060002090601f016020900481019282610604576000855561064b565b82601f1061061d57805160ff191683800117855561064b565b8280016001018555821561064b579182015b8281111561064a57825182559160200191906001019061062f565b5b509050610658919061065c565b5090565b5b8082111561067557600081600090555060010161065d565b5090565b6000604051905090565b600080fd5b600080fd5b6000819050919050565b6106a08161068d565b81146106ab57600080fd5b50565b6000813590506106bd81610697565b92915050565b6000602082840312156106d9576106d8610683565b5b60006106e7848285016106ae565b91505092915050565b6106f98161068d565b82525050565b600060208201905061071460008301846106f0565b92915050565b600081519050919050565b600082825260208201905092915050565b60005b83811015610754578082015181840152602081019050610739565b83811115610763576000848401525b50505050565b6000601f19601f8301169050919050565b60006107858261071a565b61078f8185610725565b935061079f818560208601610736565b6107a881610769565b840191505092915050565b60006040820190506107c860008301856106f0565b81810360208301526107da818461077a565b90509392505050565b600080fd5b600080fd5b7f4e487b7100000000000000000000000000000000000000000000000000000000600052604160045260246000fd5b61082582610769565b810181811067ffffffffffffffff82111715610844576108436107ed565b5b80604052505050565b6000610857610679565b9050610863828261081c565b919050565b600067ffffffffffffffff821115610883576108826107ed565b5b61088c82610769565b9050602081019050919050565b82818337600083830152505050565b60006108bb6108b684610868565b61084d565b9050828152602081018484840111156108d7576108d66107e8565b5b6108e2848285610899565b509392505050565b600082601f8301126108ff576108fe6107e3565b5b813561090f8482602086016108a8565b91505092915050565b60006020828403121561092e5761092d610683565b5b600082013567ffffffffffffffff81111561094c5761094b610688565b5b610958848285016108ea565b91505092915050565b6000806040838503121561097857610977610683565b5b6000610986858286016106ae565b925050602083013567ffffffffffffffff8111156109a7576109a6610688565b5b6109b3858286016108ea565b9150509250929050565b7f4e487b7100000000000000000000000000000000000000000000000000000000600052603260045260246000fd5b7f4e487b7100000000000000000000000000000000000000000000000000000000600052601160045260246000fd5b6000610a268261068d565b91507fffffffffffffffffffffffffffffffffffffffffffffffffffffffffffffffff8203610a5857610a576109ec565b5b600182019050919050565b7f5573657220646f6573206e6f7420657869737421000000000000000000000000600082015250565b6000610a99601483610725565b9150610aa482610a63565b602082019050919050565b60006020820190508181036000830152610ac881610a8c565b9050919050565b7f4e487b7100000000000000000000000000000000000000000000000000000000600052602260045260246000fd5b60006002820490506001821680610b1657607f821691505b602082108103610b2957610b28610acf565b5b5091905056fea264697066735822122048fc613555cec2a9823d3a2e132dda2fe2efd0ad2e2b311c685424e348ce9efc64736f6c634300080d0033",
  "immutableReferences": {},
  "source": "// SPDX-License-Identifier: UNLICENSED\npragma solidity >=0.5.0 <0.9.0;\n\ncontract AdvArray {\n    struct User {\n        uint256 id;\n        string name;\n    }\n    User[] public users;\n    uint256 public nextId = 1;\n\n    function insert(string memory name) public {\n        users.push(User(nextId, name));\n        nextId++;\n    }\n\n    function read(uint256 id) public view returns (uint256, string memory) {\n        uint256 i = find(id);\n        return (users[i].id, users[i].name);\n    }\n\n    function update(uint256 id, string memory name) public {\n        uint256 i = find(id);\n        users[i].name = name;\n    }\n\n    function remove(uint256 id) public {\n        uint256 i = find(id);\n        delete users[i];\n    }\n\n    function find(uint256 id) internal view returns (uint256) {\n        for (uint256 i = 0; i < users.length; i++) {\n            if (users[i].id == id) {\n                return i;\n            }\n        }\n        revert(\"User does not exist!\");\n    }\n}\n\ncontract ExposedContract is AdvArray {\n    function _find(uint256 id) public view returns (uint256) {\n        for (uint256 i = 0; i < users.length; i++) {\n            if (users[i].id == id) {\n                return i;\n            }\n        }\n        revert(\"User does not exist!\");\n    }\n}",
  "sourcePath": "/home/jkirito/Desktop/learning/web3/truffle/tf_1/contracts/AdvArray.sol",
  "compiler": {
    "name": "solc",
    "version": "0.8.13+commit.abaa5c0e.Emscripten.clang"
  },
  "schemaVersion": "3.4.7",
  "updatedAt": "2022-05-08T11:01:00.536Z",
  "networkType": "ethereum",
  "devdoc": {
    "kind": "dev",
    "methods": {},
    "version": 1
  },
  "userdoc": {
    "kind": "user",
    "methods": {},
    "version": 1
  }
}