{
  "contractName": "TransferAmount",
  "abi": [
    {
      "inputs": [
        {
          "internalType": "address",
          "name": "_owner",
          "type": "address"
        }
      ],
      "stateMutability": "nonpayable",
      "type": "constructor"
    },
    {
      "inputs": [
        {
          "internalType": "address payable[]",
          "name": "to",
          "type": "address[]"
        },
        {
          "internalType": "uint256[]",
          "name": "amount",
          "type": "uint256[]"
        }
      ],
      "name": "send",
      "outputs": [],
      "stateMutability": "payable",
      "type": "function",
      "payable": true
    }
  ],
  "bytecode": "0x608060405234801561001057600080fd5b50604051610726380380610726833981810160405281019061003291906100db565b806000806101000a81548173ffffffffffffffffffffffffffffffffffffffff021916908373ffffffffffffffffffffffffffffffffffffffff16021790555050610108565b600080fd5b600073ffffffffffffffffffffffffffffffffffffffff82169050919050565b60006100a88261007d565b9050919050565b6100b88161009d565b81146100c357600080fd5b50565b6000815190506100d5816100af565b92915050565b6000602082840312156100f1576100f0610078565b5b60006100ff848285016100c6565b91505092915050565b61060f806101176000396000f3fe60806040526004361061001e5760003560e01c8063a645ff5f14610023575b600080fd5b61003d6004803603810190610038919061043e565b61003f565b005b60008054906101000a900473ffffffffffffffffffffffffffffffffffffffff1673ffffffffffffffffffffffffffffffffffffffff163373ffffffffffffffffffffffffffffffffffffffff161461009757600080fd5b80518251146100db576040517f08c379a00000000000000000000000000000000000000000000000000000000081526004016100d290610513565b60405180910390fd5b60005b8251811015610175578281815181106100fa576100f9610533565b5b602002602001015173ffffffffffffffffffffffffffffffffffffffff166108fc83838151811061012e5761012d610533565b5b60200260200101519081150290604051600060405180830381858888f19350505050158015610161573d6000803e3d6000fd5b50808061016d90610591565b9150506100de565b505050565b6000604051905090565b600080fd5b600080fd5b600080fd5b6000601f19601f8301169050919050565b7f4e487b7100000000000000000000000000000000000000000000000000000000600052604160045260246000fd5b6101dc82610193565b810181811067ffffffffffffffff821117156101fb576101fa6101a4565b5b80604052505050565b600061020e61017a565b905061021a82826101d3565b919050565b600067ffffffffffffffff82111561023a576102396101a4565b5b602082029050602081019050919050565b600080fd5b600073ffffffffffffffffffffffffffffffffffffffff82169050919050565b600061027b82610250565b9050919050565b61028b81610270565b811461029657600080fd5b50565b6000813590506102a881610282565b92915050565b60006102c16102bc8461021f565b610204565b905080838252602082019050602084028301858111156102e4576102e361024b565b5b835b8181101561030d57806102f98882610299565b8452602084019350506020810190506102e6565b5050509392505050565b600082601f83011261032c5761032b61018e565b5b813561033c8482602086016102ae565b91505092915050565b600067ffffffffffffffff8211156103605761035f6101a4565b5b602082029050602081019050919050565b6000819050919050565b61038481610371565b811461038f57600080fd5b50565b6000813590506103a18161037b565b92915050565b60006103ba6103b584610345565b610204565b905080838252602082019050602084028301858111156103dd576103dc61024b565b5b835b8181101561040657806103f28882610392565b8452602084019350506020810190506103df565b5050509392505050565b600082601f8301126104255761042461018e565b5b81356104358482602086016103a7565b91505092915050565b6000806040838503121561045557610454610184565b5b600083013567ffffffffffffffff81111561047357610472610189565b5b61047f85828601610317565b925050602083013567ffffffffffffffff8111156104a05761049f610189565b5b6104ac85828601610410565b9150509250929050565b600082825260208201905092915050565b7f746f206d7573742062652073616d65206c656e67746820617320616d6f756e74600082015250565b60006104fd6020836104b6565b9150610508826104c7565b602082019050919050565b6000602082019050818103600083015261052c816104f0565b9050919050565b7f4e487b7100000000000000000000000000000000000000000000000000000000600052603260045260246000fd5b7f4e487b7100000000000000000000000000000000000000000000000000000000600052601160045260246000fd5b600061059c82610371565b91507fffffffffffffffffffffffffffffffffffffffffffffffffffffffffffffffff82036105ce576105cd610562565b5b60018201905091905056fea2646970667358221220e70fa41af0226953059f395334c2556257f98482e1eb1003bb642c1373df072164736f6c634300080d0033",
  "immutableReferences": {},
  "source": "// SPDX-License-Identifier: MIT\npragma solidity >=0.5.0 <0.9.0;\n\ncontract TransferAmount {\n\n    address owner;\n    \n    constructor(address _owner) {\n        owner = _owner;\n    }\n\n    function send(address payable[] memory to, uint256[] memory amount)\n        public\n        payable\n        ownerOnly\n    {\n        require(to.length == amount.length, \"to must be same length as amount\");\n        for (uint256 i = 0; i < to.length; i++) {\n            to[i].transfer(amount[i]); //to array  - 0x00 0x01 0x02\n                                    //amount array - 10 20 30\n        }\n    }\n\n    modifier ownerOnly() {\n        require(msg.sender == owner);\n        _;\n    }\n}",
  "sourcePath": "/home/jkirito/Desktop/learning/web3/truffle/tf_1/contracts/TransferAmount.sol",
  "compiler": {
    "name": "solc",
    "version": "0.8.13+commit.abaa5c0e.Emscripten.clang"
  },
  "schemaVersion": "3.4.7",
  "updatedAt": "2022-05-08T04:35:18.983Z",
  "networkType": "ethereum",
  "devdoc": {
    "kind": "dev",
    "methods": {},
    "version": 1
  },
  "userdoc": {
    "kind": "user",
    "methods": {},
    "version": 1
  }
}