{
  "contractName": "Wallet",
  "abi": [
    {
      "inputs": [
        {
          "internalType": "address payable",
          "name": "_owner",
          "type": "address"
        }
      ],
      "stateMutability": "nonpayable",
      "type": "constructor"
    },
    {
      "inputs": [],
      "name": "owner",
      "outputs": [
        {
          "internalType": "address payable",
          "name": "",
          "type": "address"
        }
      ],
      "stateMutability": "view",
      "type": "function",
      "constant": true
    },
    {
      "inputs": [],
      "name": "deposit",
      "outputs": [],
      "stateMutability": "payable",
      "type": "function",
      "payable": true
    },
    {
      "inputs": [],
      "name": "checkBalance",
      "outputs": [
        {
          "internalType": "uint256",
          "name": "balance",
          "type": "uint256"
        }
      ],
      "stateMutability": "view",
      "type": "function",
      "constant": true
    },
    {
      "inputs": [
        {
          "internalType": "address payable",
          "name": "to",
          "type": "address"
        },
        {
          "internalType": "uint256",
          "name": "amount",
          "type": "uint256"
        }
      ],
      "name": "send",
      "outputs": [],
      "stateMutability": "nonpayable",
      "type": "function"
    }
  ],
  "bytecode": "0x608060405234801561001057600080fd5b506040516104d03803806104d0833981810160405281019061003291906100db565b806000806101000a81548173ffffffffffffffffffffffffffffffffffffffff021916908373ffffffffffffffffffffffffffffffffffffffff16021790555050610108565b600080fd5b600073ffffffffffffffffffffffffffffffffffffffff82169050919050565b60006100a88261007d565b9050919050565b6100b88161009d565b81146100c357600080fd5b50565b6000815190506100d5816100af565b92915050565b6000602082840312156100f1576100f0610078565b5b60006100ff848285016100c6565b91505092915050565b6103b9806101176000396000f3fe60806040526004361061003f5760003560e01c80638da5cb5b14610044578063c71daccb1461006f578063d0679d341461009a578063d0e30db0146100c3575b600080fd5b34801561005057600080fd5b506100596100cd565b604051610066919061021a565b60405180910390f35b34801561007b57600080fd5b506100846100f1565b604051610091919061024e565b60405180910390f35b3480156100a657600080fd5b506100c160048036038101906100bc91906102c6565b6100f9565b005b6100cb6101d7565b005b60008054906101000a900473ffffffffffffffffffffffffffffffffffffffff1681565b600047905090565b60008054906101000a900473ffffffffffffffffffffffffffffffffffffffff1673ffffffffffffffffffffffffffffffffffffffff163373ffffffffffffffffffffffffffffffffffffffff1603610198578173ffffffffffffffffffffffffffffffffffffffff166108fc829081150290604051600060405180830381858888f19350505050158015610192573d6000803e3d6000fd5b506101d3565b6040517f08c379a00000000000000000000000000000000000000000000000000000000081526004016101ca90610363565b60405180910390fd5b5050565b565b600073ffffffffffffffffffffffffffffffffffffffff82169050919050565b6000610204826101d9565b9050919050565b610214816101f9565b82525050565b600060208201905061022f600083018461020b565b92915050565b6000819050919050565b61024881610235565b82525050565b6000602082019050610263600083018461023f565b92915050565b600080fd5b610277816101f9565b811461028257600080fd5b50565b6000813590506102948161026e565b92915050565b6102a381610235565b81146102ae57600080fd5b50565b6000813590506102c08161029a565b92915050565b600080604083850312156102dd576102dc610269565b5b60006102eb85828601610285565b92505060206102fc858286016102b1565b9150509250929050565b600082825260208201905092915050565b7f53656e646572206973206e6f7420616c6c6f7765640000000000000000000000600082015250565b600061034d601583610306565b915061035882610317565b602082019050919050565b6000602082019050818103600083015261037c81610340565b905091905056fea2646970667358221220cec1c6da3f50bd758a9f4169fb023cc08af1c7f247cd8d13841804257b14d6fc64736f6c634300080d0033",
  "immutableReferences": {},
  "source": "// SPDX-License-Identifier: MIT\npragma solidity >=0.5.0 <0.9.0;\n\ncontract Wallet {\n    address payable public owner;\n\n    constructor(address payable _owner) {\n        // owner = payable(msg.sender);\n        owner = _owner;\n    }\n\n    // constructor() {\n    //     owner = payable(msg.sender);\n    // }\n\n    function deposit() public payable {}\n\n    function checkBalance() public view returns(uint balance) {\n        // return owner.balance;\n        return address(this).balance;\n    }\n\n    function send(address payable to,uint amount) public  {\n        if(msg.sender == owner) {\n            to.transfer(amount);\n            return;\n        }\n        revert(\"Sender is not allowed\");\n    }\n}",
  "sourcePath": "/home/jkirito/Desktop/learning/web3/truffle/tf_1/contracts/Wallet.sol",
  "compiler": {
    "name": "solc",
    "version": "0.8.13+commit.abaa5c0e.Emscripten.clang"
  },
  "schemaVersion": "3.4.7",
  "updatedAt": "2022-05-08T04:35:18.735Z",
  "networkType": "ethereum",
  "devdoc": {
    "kind": "dev",
    "methods": {},
    "version": 1
  },
  "userdoc": {
    "kind": "user",
    "methods": {},
    "version": 1
  }
}